{
  "_format": "hh-sol-artifact-1",
  "contractName": "Raffle",
  "sourceName": "contracts/Raffle.sol",
  "abi": [
    {
      "inputs": [
        {
          "internalType": "address",
          "name": "vrfCoordinatorV2",
          "type": "address"
        },
        {
          "internalType": "uint256",
          "name": "entranceFee",
          "type": "uint256"
        },
        {
          "internalType": "bytes32",
          "name": "gasLane",
          "type": "bytes32"
        },
        {
          "internalType": "uint64",
          "name": "subscriptionId",
          "type": "uint64"
        },
        {
          "internalType": "uint32",
          "name": "callbackGasLimit",
          "type": "uint32"
        },
        {
          "internalType": "uint256",
          "name": "interval",
          "type": "uint256"
        }
      ],
      "stateMutability": "nonpayable",
      "type": "constructor"
    },
    {
      "inputs": [
        {
          "internalType": "address",
          "name": "have",
          "type": "address"
        },
        {
          "internalType": "address",
          "name": "want",
          "type": "address"
        }
      ],
      "name": "OnlyCoordinatorCanFulfill",
      "type": "error"
    },
    {
      "inputs": [],
      "name": "Raffle__NotEnoughETHEntered",
      "type": "error"
    },
    {
      "inputs": [],
      "name": "Raffle__NotOpen",
      "type": "error"
    },
    {
      "inputs": [],
      "name": "Raffle__TransferFailed",
      "type": "error"
    },
    {
      "inputs": [
        {
          "internalType": "uint256",
          "name": "currentBalance",
          "type": "uint256"
        },
        {
          "internalType": "uint256",
          "name": "numPlayers",
          "type": "uint256"
        },
        {
          "internalType": "uint256",
          "name": "raffleState",
          "type": "uint256"
        }
      ],
      "name": "Raffle__UpkeepNotNeeded",
      "type": "error"
    },
    {
      "anonymous": false,
      "inputs": [
        {
          "indexed": true,
          "internalType": "address",
          "name": "player",
          "type": "address"
        }
      ],
      "name": "RaffleEnter",
      "type": "event"
    },
    {
      "anonymous": false,
      "inputs": [
        {
          "indexed": true,
          "internalType": "uint256",
          "name": "requestId",
          "type": "uint256"
        }
      ],
      "name": "RequestedRaffleWinner",
      "type": "event"
    },
    {
      "anonymous": false,
      "inputs": [
        {
          "indexed": true,
          "internalType": "address",
          "name": "winner",
          "type": "address"
        }
      ],
      "name": "WinnerPicked",
      "type": "event"
    },
    {
      "inputs": [
        {
          "internalType": "bytes",
          "name": "",
          "type": "bytes"
        }
      ],
      "name": "checkUpkeep",
      "outputs": [
        {
          "internalType": "bool",
          "name": "upkeepNeeded",
          "type": "bool"
        },
        {
          "internalType": "bytes",
          "name": "",
          "type": "bytes"
        }
      ],
      "stateMutability": "nonpayable",
      "type": "function"
    },
    {
      "inputs": [],
      "name": "enterRaffle",
      "outputs": [],
      "stateMutability": "payable",
      "type": "function"
    },
    {
      "inputs": [],
      "name": "getEntranceFee",
      "outputs": [
        {
          "internalType": "uint256",
          "name": "",
          "type": "uint256"
        }
      ],
      "stateMutability": "view",
      "type": "function"
    },
    {
      "inputs": [],
      "name": "getInterval",
      "outputs": [
        {
          "internalType": "uint256",
          "name": "",
          "type": "uint256"
        }
      ],
      "stateMutability": "view",
      "type": "function"
    },
    {
      "inputs": [],
      "name": "getLatestTimeStamp",
      "outputs": [
        {
          "internalType": "uint256",
          "name": "",
          "type": "uint256"
        }
      ],
      "stateMutability": "view",
      "type": "function"
    },
    {
      "inputs": [],
      "name": "getNumWords",
      "outputs": [
        {
          "internalType": "uint256",
          "name": "",
          "type": "uint256"
        }
      ],
      "stateMutability": "view",
      "type": "function"
    },
    {
      "inputs": [],
      "name": "getNumberOfPlayers",
      "outputs": [
        {
          "internalType": "uint256",
          "name": "",
          "type": "uint256"
        }
      ],
      "stateMutability": "view",
      "type": "function"
    },
    {
      "inputs": [
        {
          "internalType": "uint256",
          "name": "index",
          "type": "uint256"
        }
      ],
      "name": "getPlayer",
      "outputs": [
        {
          "internalType": "address",
          "name": "",
          "type": "address"
        }
      ],
      "stateMutability": "view",
      "type": "function"
    },
    {
      "inputs": [],
      "name": "getRaffleState",
      "outputs": [
        {
          "internalType": "enum Raffle.RaffleState",
          "name": "",
          "type": "uint8"
        }
      ],
      "stateMutability": "view",
      "type": "function"
    },
    {
      "inputs": [],
      "name": "getRecentWinner",
      "outputs": [
        {
          "internalType": "address",
          "name": "",
          "type": "address"
        }
      ],
      "stateMutability": "view",
      "type": "function"
    },
    {
      "inputs": [],
      "name": "getRequestConfirmations",
      "outputs": [
        {
          "internalType": "uint256",
          "name": "",
          "type": "uint256"
        }
      ],
      "stateMutability": "pure",
      "type": "function"
    },
    {
      "inputs": [
        {
          "internalType": "bytes",
          "name": "",
          "type": "bytes"
        }
      ],
      "name": "performUpkeep",
      "outputs": [],
      "stateMutability": "nonpayable",
      "type": "function"
    },
    {
      "inputs": [
        {
          "internalType": "uint256",
          "name": "requestId",
          "type": "uint256"
        },
        {
          "internalType": "uint256[]",
          "name": "randomWords",
          "type": "uint256[]"
        }
      ],
      "name": "rawFulfillRandomWords",
      "outputs": [],
      "stateMutability": "nonpayable",
      "type": "function"
    }
  ],
  "bytecode": "0x6101406040523480156200001257600080fd5b506040516200175f3803806200175f8339818101604052810190620000389190620001ab565b858073ffffffffffffffffffffffffffffffffffffffff1660808173ffffffffffffffffffffffffffffffffffffffff1660601b81525050508460a081815250508573ffffffffffffffffffffffffffffffffffffffff1660c08173ffffffffffffffffffffffffffffffffffffffff1660601b815250508360e081815250508267ffffffffffffffff166101008167ffffffffffffffff1660c01b815250508163ffffffff166101208163ffffffff1660e01b815250506000600160146101000a81548160ff02191690836001811115620001195762000118620002b3565b5b0217905550426002819055508060038190555050505050505062000369565b6000815190506200014981620002e7565b92915050565b600081519050620001608162000301565b92915050565b60008151905062000177816200031b565b92915050565b6000815190506200018e8162000335565b92915050565b600081519050620001a5816200034f565b92915050565b60008060008060008060c08789031215620001cb57620001ca620002e2565b5b6000620001db89828a0162000138565b9650506020620001ee89828a0162000166565b95505060406200020189828a016200014f565b94505060606200021489828a0162000194565b93505060806200022789828a016200017d565b92505060a06200023a89828a0162000166565b9150509295509295509295565b6000620002548262000265565b9050919050565b6000819050919050565b600073ffffffffffffffffffffffffffffffffffffffff82169050919050565b6000819050919050565b600063ffffffff82169050919050565b600067ffffffffffffffff82169050919050565b7f4e487b7100000000000000000000000000000000000000000000000000000000600052602160045260246000fd5b600080fd5b620002f28162000247565b8114620002fe57600080fd5b50565b6200030c816200025b565b81146200031857600080fd5b50565b620003268162000285565b81146200033257600080fd5b50565b62000340816200028f565b81146200034c57600080fd5b50565b6200035a816200029f565b81146200036657600080fd5b50565b60805160601c60a05160c05160601c60e0516101005160c01c6101205160e01c61138c620003d360003960006106a50152600061068201526000610661015260006106250152600081816102fa01526103f7015260008181610337015261038b015261138c6000f3fe6080604052600436106100c25760003560e01c8063473f1ddc1161007f5780636e04ff0d116100595780636e04ff0d1461022557806391ad27b414610263578063e55ae4e81461028e578063fd6673f5146102cb576100c2565b8063473f1ddc146101a457806353a2c19a146101cf5780635f1b0fd8146101fa576100c2565b806309bc33a7146100c7578063115cbaf5146100f25780631fe543e31461011d5780632cfcc53914610146578063320229eb146101505780634585e33b1461017b575b600080fd5b3480156100d357600080fd5b506100dc6102f6565b6040516100e99190610f85565b60405180910390f35b3480156100fe57600080fd5b5061010761031e565b6040516101149190610f6a565b60405180910390f35b34801561012957600080fd5b50610144600480360381019061013f9190610d4f565b610335565b005b61014e6103f5565b005b34801561015c57600080fd5b50610165610564565b6040516101729190610f85565b60405180910390f35b34801561018757600080fd5b506101a2600480360381019061019d9190610cac565b61056e565b005b3480156101b057600080fd5b506101b961076c565b6040516101c69190610ea3565b60405180910390f35b3480156101db57600080fd5b506101e4610796565b6040516101f19190610f85565b60405180910390f35b34801561020657600080fd5b5061020f6107a3565b60405161021c9190610f85565b60405180910390f35b34801561023157600080fd5b5061024c60048036038101906102479190610cac565b6107b0565b60405161025a929190610ee7565b60405180910390f35b34801561026f57600080fd5b5061027861083f565b6040516102859190610f85565b60405180910390f35b34801561029a57600080fd5b506102b560048036038101906102b09190610cf5565b610849565b6040516102c29190610ea3565b60405180910390f35b3480156102d757600080fd5b506102e0610890565b6040516102ed9190610f85565b60405180910390f35b60007f0000000000000000000000000000000000000000000000000000000000000000905090565b6000600160149054906101000a900460ff16905090565b7f000000000000000000000000000000000000000000000000000000000000000073ffffffffffffffffffffffffffffffffffffffff163373ffffffffffffffffffffffffffffffffffffffff16146103e757337f00000000000000000000000000000000000000000000000000000000000000006040517f1cf993f40000000000000000000000000000000000000000000000000000000081526004016103de929190610ebe565b60405180910390fd5b6103f1828261089c565b5050565b7f000000000000000000000000000000000000000000000000000000000000000034101561044f576040517fbd4e069500000000000000000000000000000000000000000000000000000000815260040160405180910390fd5b6000600181111561046357610462611271565b5b600160149054906101000a900460ff16600181111561048557610484611271565b5b146104bc576040517f1425571c00000000000000000000000000000000000000000000000000000000815260040160405180910390fd5b6000339080600181540180825580915050600190039060005260206000200160009091909190916101000a81548173ffffffffffffffffffffffffffffffffffffffff021916908373ffffffffffffffffffffffffffffffffffffffff1602179055503373ffffffffffffffffffffffffffffffffffffffff167f0805e1d667bddb8a95f0f09880cf94f403fb596ce79928d9f29b74203ba284d460405160405180910390a2565b6000600254905090565b6000610588604051806020016040528060008152506107b0565b509050806105f75747600080549050600160149054906101000a900460ff1660018111156105b9576105b8611271565b5b6040517f584327aa0000000000000000000000000000000000000000000000000000000081526004016105ee93929190610fa0565b60405180910390fd5b60018060146101000a81548160ff0219169083600181111561061c5761061b611271565b5b021790555060007f000000000000000000000000000000000000000000000000000000000000000073ffffffffffffffffffffffffffffffffffffffff16635d3b1d307f00000000000000000000000000000000000000000000000000000000000000007f000000000000000000000000000000000000000000000000000000000000000060037f000000000000000000000000000000000000000000000000000000000000000060016040518663ffffffff1660e01b81526004016106e6959493929190610f17565b602060405180830381600087803b15801561070057600080fd5b505af1158015610714573d6000803e3d6000fd5b505050506040513d601f19601f820116820180604052508101906107389190610d22565b9050807fcd6e45c8998311cab7e9d4385596cac867e20a0587194b954fa3a731c93ce78b60405160405180910390a2505050565b6000600160009054906101000a900473ffffffffffffffffffffffffffffffffffffffff16905090565b6000600161ffff16905090565b6000600361ffff16905090565b600060606000600160149054906101000a900460ff1660018111156107d8576107d7611271565b5b600060018111156107ec576107eb611271565b5b1490506000600354600254426108029190611080565b119050600080600080549050119050600080471190508380156108225750825b801561082b5750815b80156108345750805b955050505050915091565b6000600354905090565b600080828154811061085e5761085d6112a0565b5b9060005260206000200160009054906101000a900473ffffffffffffffffffffffffffffffffffffffff169050919050565b60008080549050905090565b60008080549050826000815181106108b7576108b66112a0565b5b60200260200101516108c991906111e2565b905060008082815481106108e0576108df6112a0565b5b9060005260206000200160009054906101000a900473ffffffffffffffffffffffffffffffffffffffff16905080600160006101000a81548173ffffffffffffffffffffffffffffffffffffffff021916908373ffffffffffffffffffffffffffffffffffffffff1602179055506000600160146101000a81548160ff0219169083600181111561097457610973611271565b5b0217905550600067ffffffffffffffff811115610994576109936112cf565b5b6040519080825280602002602001820160405280156109c25781602001602082028036833780820191505090505b50600090805190602001906109d8929190610acd565b504260028190555060008173ffffffffffffffffffffffffffffffffffffffff1647604051610a0690610e8e565b60006040518083038185875af1925050503d8060008114610a43576040519150601f19603f3d011682016040523d82523d6000602084013e610a48565b606091505b5050905080610a83576040517fa1d04b3900000000000000000000000000000000000000000000000000000000815260040160405180910390fd5b8173ffffffffffffffffffffffffffffffffffffffff167f5b690ec4a06fe979403046eaeea5b3ce38524683c3001f662c8b5a829632f7df60405160405180910390a25050505050565b828054828255906000526020600020908101928215610b46579160200282015b82811115610b455782518260006101000a81548173ffffffffffffffffffffffffffffffffffffffff021916908373ffffffffffffffffffffffffffffffffffffffff16021790555091602001919060010190610aed565b5b509050610b539190610b57565b5090565b5b80821115610b70576000816000905550600101610b58565b5090565b6000610b87610b8284610ffc565b610fd7565b90508083825260208201905082856020860282011115610baa57610ba9611303565b5b60005b85811015610bda5781610bc08882610c82565b845260208401935060208301925050600181019050610bad565b5050509392505050565b6000610bf7610bf284611028565b610fd7565b905082815260208101848484011115610c1357610c12611308565b5b610c1e84828561116f565b509392505050565b600082601f830112610c3b57610c3a6112fe565b5b8135610c4b848260208601610b74565b91505092915050565b600082601f830112610c6957610c686112fe565b5b8135610c79848260208601610be4565b91505092915050565b600081359050610c918161133f565b92915050565b600081519050610ca68161133f565b92915050565b600060208284031215610cc257610cc1611312565b5b600082013567ffffffffffffffff811115610ce057610cdf61130d565b5b610cec84828501610c54565b91505092915050565b600060208284031215610d0b57610d0a611312565b5b6000610d1984828501610c82565b91505092915050565b600060208284031215610d3857610d37611312565b5b6000610d4684828501610c97565b91505092915050565b60008060408385031215610d6657610d65611312565b5b6000610d7485828601610c82565b925050602083013567ffffffffffffffff811115610d9557610d9461130d565b5b610da185828601610c26565b9150509250929050565b610db4816110b4565b82525050565b610dc3816110c6565b82525050565b610dd2816110d2565b82525050565b6000610de382611059565b610ded8185611064565b9350610dfd81856020860161117e565b610e0681611317565b840191505092915050565b610e1a8161114b565b82525050565b6000610e2d600083611075565b9150610e3882611328565b600082019050919050565b610e4c816110ef565b82525050565b610e5b8161115d565b82525050565b610e6a8161111d565b82525050565b610e7981611127565b82525050565b610e8881611137565b82525050565b6000610e9982610e20565b9150819050919050565b6000602082019050610eb86000830184610dab565b92915050565b6000604082019050610ed36000830185610dab565b610ee06020830184610dab565b9392505050565b6000604082019050610efc6000830185610dba565b8181036020830152610f0e8184610dd8565b90509392505050565b600060a082019050610f2c6000830188610dc9565b610f396020830187610e7f565b610f466040830186610e43565b610f536060830185610e70565b610f606080830184610e52565b9695505050505050565b6000602082019050610f7f6000830184610e11565b92915050565b6000602082019050610f9a6000830184610e61565b92915050565b6000606082019050610fb56000830186610e61565b610fc26020830185610e61565b610fcf6040830184610e61565b949350505050565b6000610fe1610ff2565b9050610fed82826111b1565b919050565b6000604051905090565b600067ffffffffffffffff821115611017576110166112cf565b5b602082029050602081019050919050565b600067ffffffffffffffff821115611043576110426112cf565b5b61104c82611317565b9050602081019050919050565b600081519050919050565b600082825260208201905092915050565b600081905092915050565b600061108b8261111d565b91506110968361111d565b9250828210156110a9576110a8611213565b5b828203905092915050565b60006110bf826110fd565b9050919050565b60008115159050919050565b6000819050919050565b60008190506110ea8261132b565b919050565b600061ffff82169050919050565b600073ffffffffffffffffffffffffffffffffffffffff82169050919050565b6000819050919050565b600063ffffffff82169050919050565b600067ffffffffffffffff82169050919050565b6000611156826110dc565b9050919050565b6000611168826110ef565b9050919050565b82818337600083830152505050565b60005b8381101561119c578082015181840152602081019050611181565b838111156111ab576000848401525b50505050565b6111ba82611317565b810181811067ffffffffffffffff821117156111d9576111d86112cf565b5b80604052505050565b60006111ed8261111d565b91506111f88361111d565b92508261120857611207611242565b5b828206905092915050565b7f4e487b7100000000000000000000000000000000000000000000000000000000600052601160045260246000fd5b7f4e487b7100000000000000000000000000000000000000000000000000000000600052601260045260246000fd5b7f4e487b7100000000000000000000000000000000000000000000000000000000600052602160045260246000fd5b7f4e487b7100000000000000000000000000000000000000000000000000000000600052603260045260246000fd5b7f4e487b7100000000000000000000000000000000000000000000000000000000600052604160045260246000fd5b600080fd5b600080fd5b600080fd5b600080fd5b600080fd5b6000601f19601f8301169050919050565b50565b6002811061133c5761133b611271565b5b50565b6113488161111d565b811461135357600080fd5b5056fea26469706673582212205bc9da298ff80174176c2c155f368414e737e823a1f209478f43e7df6307c86464736f6c63430008070033",
  "linkReferences": {},
  "deployedLinkReferences": {}
}